:020000040800F2
:1000000040010120E5020008075900088752000856
:10001000055900080D090008E1640008000000000F
:100020000000000000000000000000004D5B000820
:100030005D0F000800000000095900084F5B000830
:10004000FF020008FF020008FF020008FF0200088C
:10005000FF020008FF020008FF020008FF0200087C
:10006000FF020008FF020008FF020008010B000861
:10007000FF020008FF020008FF020008FF0200085C
:10008000FF020008FF020008FF020008FF0200084C
:10009000FF020008FF020008FF020008FF0200083C
:1000A000FF020008FF020008FF020008FF0200082C
:1000B000FF020008B15C0008BD5C0008FF020008F8
:1000C000FF020008FF020008FF020008FF0200080C
:1000D000FF02000899640008A5640008FF020008F8
:1000E000FF020008FF02000800000000FF020008F5
:1000F000FF020008FF020008FF020008FF020008DC
:10010000FF020008FF020008FF020008FF020008CB
:10011000FF020008FF020008FF020008FF020008BB
:100120000D0B0008190B0008FF020008FF02000871
:10013000FF020008FF020008FF020008FF0200089B
:1001400000000000000000000000000000000000AF
:10015000FF020008FF020008FF020008FF0200087B
:10016000FF020008FF020008FF020008FF0200086B
:10017000FF020008FF020008FF0200080000000064
:10018000FF020008FF020008FF020008FF0200084B
:10019000FF020008FF020008FF020008FF0200083B
:1001A000FF020008FF020008FF0200080000000034
:1001B000FF020008FF020008FF020008FF0200081B
:1001C000FF020008FF02000800000000000000001D
:1001D0000000000000000000FF0200080000000016
:1001E000000000000000000000000000000000000F
:1001F0000000000000000000FF020008FF020008ED
:10020000FF020008FF02000800000000FF020008D3
:10021000FF020008FF020008FF020008FF020008BA
:10022000FF02000800000000FF02000800000000BC
:10023000FF020008FF02000800000000FF020008A3
:10024000FF020008FF020008FF020008FF0200088A
:10025000FF020008FF020008FF020008FF0200087A
:10026000FF020008FF020008FF020008FF0200086A
:10027000FF020008FF020008FF0200080000000063
:10028000FF020008FF020008FF020008FF0200084A
:1002900000000000FF020008FF020008000000004C
:1002A00000000000FF020008FF020008FF02000833
:1002B000FF020008FF020008FF020008FF0200081A
:1002C000FF020008FF020008FF020008DFF810D05C
:1002D00000F082FA0048004789AA0008AFF30080C6
:1002E000400101200648804706480047FEE7FEE738
:1002F000FEE7FEE7FEE7FEE7FEE7FEE7FEE7FEE7D6
:10030000F15B0008CD0200082DE9F05F05460020F2
:1003100092469B4688460646814640241BE0284676
:1003200041464746224600F08FF853465A46C01AC7
:10033000914110D311461846224600F016F82D1AA6
:1003400067EB01084F4622460120002100F00DF81E
:1003500017EB00094E41201EA4F10104DFDC4846E2
:1003600031462A464346BDE8F09F202A04DB203A66
:1003700000FA02F1002070479140C2F1200320FAF8
:1003800003F3194390407047202A06DBCB17203A2D
:1003900041FA02F043EAE07306E041FA02F3D0408A
:1003A000C2F12002914008431946704740EA010318
:1003B0009B0703D009E008C9121F08C0042AFAD21B
:1003C00003E011F8013B00F8013B521EF9D27047DF
:1003D000D2B201E000F8012B491EFBD27047002287
:1003E000F6E710B513460A4604461946FFF7F0FF34
:1003F000204610BD421C10F8011B0029FBD1801AB9
:10040000704730B504460020034600E05B1C934271
:1004100003D2E05CCD5C401BF8D030BD30B50B465C
:10042000014600202022012409E021FA02F59D4224
:1004300005D303FA02F5491B04FA02F52844151EF8
:10044000A2F10102F1DC30BD202A04DB203A21FABE
:1004500002F00021704721FA02F3D040C2F12002DD
:1004600091400843194670472DE9FE4F804681EAC6
:100470000300C00F0C46009021F0004123F000451E
:10048000B8EB0200A94105D24046214690461C46E1
:100490000B46024623F00040104347D0270DC7F318
:1004A0000A00C3F30A510290401A019040286BDA07
:1004B000C3F3130040F4801B0098924620B1002340
:1004C000D2EB030A63EB0B0B01985946C0F14002D3
:1004D0005046FFF74AFF06460D4650465946019AD8
:1004E000FFF752FF10EB08006141002487EA115228
:1004F00084EAE7731A4340D0009A62B3019A012A52
:100500004FEA075215DC001B61EB02014FF000427D
:1005100002EA0752CDE90042001C41F58011324643
:100520002B4600F07AF903B0BDE8F08F4046214633
:10053000F9E7001B61EB0201001C41F58013001874
:100540005B412018A2F5001747EB030140EAD57084
:10055000B6196D4111E06D084FEA360645EAC075DF
:100560004FEA0752001B61EB0201001C41F58011AC
:1005700049084FEA30000019514132462B4603B07A
:10058000BDE8F04F00F03AB9009801224000002386
:10059000D0EB020263EBE073009821464FEAE0746F
:1005A000B8EB000061EB0401E9E783F000435BE78F
:1005B00081F0004158E72DE9FE4F81EA030404F081
:1005C000004421F0004100944FF0000B23F0004361
:1005D00050EA01045ED052EA03045BD0C3F30A542C
:1005E000C1F30A552C44A4F2F3340194A0FB025445
:1005F000C1F3130141F48011C3F3130343F48013D7
:1006000001FB024400FB034E840A970A44EA81542A
:1006100047EA8357A4FB076802958D0A05FB078507
:100620004FEA932C04FB0C542705029D4FEA065811
:1006300047EA1637B5EB08056EEB070C870E920EEE
:1006400047EA811742EA8312A7FB0201B6EB0B01CE
:1006500064EB00042B0D43EA0C335E1844EB1C5092
:10066000DA465146E7FB0201C5F313044FEA0B33A8
:1006700043EA14534FEA0432019C43EA0603A4F10F
:100680000C040294009CCDE900B400F0C6F803B05D
:10069000BDE8F08F00200146F9E72DE9F04D81EA31
:1006A000030404F0004B21F0004514464FF0000A0B
:1006B00023F0004150EA050220D054EA01021DD087
:1006C000C5F30A570246C5F31303C1F31300C1F380
:1006D0000A5640F4801543F48013A7EB0608101B5C
:1006E000D64608F2FD3873EB050002D308F1010885
:1006F00001E092185B41B8F1000F03DA00200146D7
:10070000BDE8F08D00204FF48011064684460EE0CF
:10071000171B73EB050705D3121B63EB0503064399
:100720004CEA010C49084FEA300092185B4150EA4C
:100730000107EDD152EA030012D082EA040083EAF5
:100740000501084305D0101BAB4106D2012200234E
:1007500006E000224FF0004302E06FF00102531068
:100760001AEB06004CEB085110EB0A0041EB0B01B1
:10077000BDE8F04D00F042B8C1F30A52C1F31301D5
:1007800040F2FF3341F480119A4202DA0020014620
:10079000704740F233439A42A2F2334202DC5242A3
:1007A000FFF752BEFFF7E1BD30B5041E71F1000442
:1007B00004DB4FF00044404264EB0101141E73F16E
:1007C000000405DB1C464FF00043524263EB040378
:1007D000994208BF904230BD064C074D06E0E068E4
:1007E00040F0010394E8070098471034AC42F6D378
:1007F000FFF770FD882A0408B82A040810B5141EF3
:1008000073F1000408DA401C41F1000192185B41C9
:100810001A4301D120F0010010BD2DE9F04D9246A0
:100820009B4611B1B1FA81F202E0B0FA80F22032B7
:100830009046FFF79AFD04460F4640EA0A0041EA57
:100840000B0153465A46084313D0114653EA0100A0
:1008500019D0C8F140025046FFF7F6FD05460E4696
:10086000504659464246FFF780FD084305D0012017
:1008700004E020463946BDE8F08D0020054346EAF5
:10088000E0762C4337430A986305E40AA0EB08009E
:100890000022FD0A44EA47540A3002D500200146EE
:1008A000E9E7010510196941DDE9084500196941C9
:1008B000BDE8F04DA2E770B58C1810F8015B15F09B
:1008C000070301D110F8013B2A1106D110F8012BC2
:1008D00003E010F8016B01F8016B5B1EF9D12B07E7
:1008E00005D40023521E0DD401F8013BFAE710F89D
:1008F000013BCB1A921C03E013F8015B01F8015B8A
:10090000521EF9D5A142D8D3002070BDFEE70000E9
:100910002DE9F041002406F046FA050013D03648D0
:10092000006840F25146721C0021C0F30A00012306
:10093000A0F58067493F04D0B04207D141F00101E2
:1009400008E0194606E02046BDE8F081904201D15A
:10095000012000E00020014328494FF0180008D092
:1009600088608868182843D18B6088680028FCD18B
:100970003DE0234E4FF00A47224AD6F800C0B7EBBD
:100980004C5F08D110601068182831D113601068CE
:100990000028FCD12BE0D6F800C0CCF30A0CACF553
:1009A0008067833F0AD037684FF01042B2EB475F51
:1009B00012D188608868182809D019E01060106882
:1009C000182815D1136010680028FCD10FE08B6047
:1009D00088680028FCD10AE03268520508D1886096
:1009E0008868182804D18B6088680028FCD101240D
:1009F000284606F04BFAA6E7002004E0003002404B
:100A00000010005C084C02582DE9F04106F0CBF9CB
:100A100035490B6840F251456C1C0021C3F30A03B1
:100A20000122A3F58066493E04D0AB4204D141F0D7
:100A3000010105E0114603E0A34201D1012300E0DA
:100A400000232A4D2A4E19432A4908D08A608A6811
:100A5000002AFCD10D600968B14241D0FEE7264C66
:100A60004FF00A4C254BD4F800E0244F0837BCEB7C
:100A70004E5F08D13A6039680029FCD11D601968C1
:100A8000B1422DD0FEE7D4F800E0CEF30A0EAEF569
:100A9000806CBCF1830C0ED027684FF01043B3EB91
:100AA000475F11D18A608A68002AFCD10D6009680D
:100AB000B14215D0FEE73A6039680029FCD11D60CB
:100AC0001968B1420CD0FEE723685B0508D18A6043
:100AD0008A68002AFCD10D600968B14200D0FEE7A7
:100AE00006F0D4F9BDE8F081002004E0C2A507F4C7
:100AF000CDB5E8B5003002400010005C004C025853
:100B0000014800F09BBD0000809C0020014800F0DF
:100B100095BD0000F89C0020014800F08FBD00004A
:100B2000709D0020294A016891423AD0274A183224
:100B3000914236D0254A3032914232D0234A48324F
:100B400091422ED0214A603291422AD01F4A7832F7
:100B5000914226D01D4A9032914222D01B4AA8329F
:100B600091421ED01A4A91421BD0194A1832914222
:100B700017D0174A3032914213D0154A4832914269
:100B80000FD0134A603291420BD0114A7832914211
:100B900007D00F4A9032914203D00D4AA8329142B9
:100BA00011D1CAB21823103AB2FBF3F26FF3090164
:100BB000032A02F00703074AD25CC26500D9091D67
:100BC00081650846704721F0FF01F9E710000240F7
:100BD000100402400455020830B5224A012301687E
:100BE0009142CAB21BD01F4C1434A14217D01D4CE5
:100BF0002834A14213D01B4C3C34A1420FD0194CD5
:100C00005034A1420BD0174C6434A14207D0154C8C
:100C10007834A14203D0134C8C34A1420CD114215E
:100C2000114C083AB2FBF1F10F4A803201F01F0576
:100C300004EB8101AB4010E00C4D1824103A0D4438
:100C4000B2FBF4F1A82D00D80831094A01F01F04C5
:100C500002EB8101064AA3408032603080E80E003A
:100C600030BD00000854025800580258F0FBFDBF88
:100C70000008024010B50279531E072B2DD8174CDF
:100C80000168A1421BD0154C1434A14217D0134C5B
:100C90002834A14213D0114C3C34A1420FD00F4C48
:100CA0005034A1420BD00D4C6434A14207D00B4C00
:100CB0007834A14203D0094C8C34A14203D10849B5
:100CC000074C443102E00749064C443104EB8202F0
:100CD000C0E91B2101219940416710BD0854025809
:100CE000FC580258FC08024010B583694FF0C074EC
:100CF000826A0146002053B1B3F5005F15D072B18E
:100D0000012A0CD0022A0AD0032A09D104E01AB120
:100D1000012A06D0022A03D1C96AC90100D50120DF
:100D200010BDC96AA142FAD010BD002AF7D0012A2D
:100D3000F2D0022AF3D0032AF3D010BD2DE9F04FF0
:100D4000804E804FDFF8FC911836DFF8F8A1483765
:100D50000468856D0AF1300ADFF8ECB14C45DFF824
:100D6000ECC1DFF8ECE16DD0B4426BD0544569D0F2
:100D7000BC4267D0DFF8D081A8F11808444561D0A3
:100D80005C455FD064455DD074455BD0DFF8C481BD
:100D9000444557D0DFF8BC8108F11808444551D0CC
:100DA000DFF8B08108F1300844454BD0DFF8A4816A
:100DB00008F14808444545D0DFF8988108F16008FB
:100DC00044453FD0DFF88C8108F17808444539D09C
:100DD000DFF8808108F19008444533D0DFF8748152
:100DE00008F1A80844452DD0DFF86C81444529D08E
:100DF000DFF8648108F11408444523D0DFF85881F6
:100E000008F1280844451DD0DFF84C8108F13C0862
:100E1000444517D0DFF8408108F15008444511D00F
:100E2000DFF8348108F1640844450BD0DFF82881ED
:100E300008F17808444505D0DFF81C8108F18C08DA
:100E4000444509D1D0E91948C4F80480C46E1CB1E6
:100E5000D0E91C48C4F8048004684C452ED0B44244
:100E60002CD054452AD0BC4228D0374E183EB4422C
:100E700024D05C4522D0644520D074451ED0354E28
:100E8000B4421BD0334E1836B44217D0314E3036F0
:100E9000B44213D02F4E4836B4420FD02D4E603698
:100EA000B4420BD02B4E7836B44207D0294E903640
:100EB000B44203D0274EA836B44215D190F85C60F6
:100EC0003F2406F01F06B440AC600468256825F492
:100ED000802525602EE09A600068C160BDE8F08F33
:100EE00099600068C260F9E71B4EB4421BD01A4EED
:100EF0001436B44217D0184E2836B44213D0164ECA
:100F00003C36B4420FD0144E5036B4420BD0124E81
:100F10006436B44207D0104E7836B44203D00E4E39
:100F20008C36B442DAD190F85C60012406F01F06DA
:100F3000B4406C60046863608368402B0368CFD161
:100F4000C9E700001000024088000240A0000240F3
:100F5000B80002401004024008540258704772B6AC
:100F6000FEE7F0B50446C8074FF0000010D01E237E
:100F7000012603F01F0706FA07F50D4201D15B1E9B
:100F8000F7D27AB1082A0BD0102A06D0182A01D03D
:100F90000120F0BD072BFBD204E0082BF8D201E0C2
:100FA000102BF5D22368596121688B6823F0180350
:100FB00013438B60F0BD000010B5040010D0607FBB
:100FC00020B900202077204600F032F82179022055
:100FD000607739B1D4E902122046FFF7C2FF48B169
:100FE000012010BD2168114848612068816821F006
:100FF000180181606079A0B121682069086101222F
:1010000020686369816821F060011943816020686C
:10101000A369816821F08001194381606277002013
:1010200010BD21684FF0FF30E8E70000B71DC10494
:1010300008B500680649884208D10648016841F4AD
:1010400000210160006800F40020009008BD00004D
:10105000004C0258E04402582DE9F84F044601F0D4
:10106000A9FA00903CB194F83500022806D08021FE
:1010700061650020E4E00120BDE8F88FC74DC74E50
:10108000C649183520683036DFF81483DFF814932A
:101090008842DFF814A3DFF814B32ED0A8422CD076
:1010A000B0422AD0404528D0484526D0504524D0CB
:1010B000584522D0BD4A183290421ED0BC4A9042B8
:1010C0001BD0BB4A1832904217D0B94A30329042F6
:1010D00013D0B74A483290420FD0B54A603290429E
:1010E0000BD0B34A7832904207D0B14A9032904246
:1010F00003D0AF4AA832904209D1026822F01E0202
:1011000002602068426922F08002426103E00268C6
:1011100022F00E02026027688F4238464DD0A84266
:101120004BD0B04249D0404547D0484545D05045C6
:1011300043D0584541D09D4A183290423DD09C4AF8
:1011400090423AD09A4A1832904236D0984A303279
:10115000904232D0964A483290422ED0944A603221
:1011600090422AD0924A7832904226D0904A9032C9
:10117000904222D08E4AA83290421ED08D4A904290
:101180001BD08C4A1432904217D08A4A283290429F
:1011900013D0884A3C3290420FD0864A5032904257
:1011A0000BD0844A6432904207D0824A783290420F
:1011B00003D0804A8C32974204D1206E026822F418
:1011C0008072026075492068884228D0A84226D0E3
:1011D000B04224D0404522D0484520D050451ED0B2
:1011E00058451CD071491831884218D0704988423E
:1011F00015D06F491831884211D06D49303188427D
:101200000DD06B494831884209D069496031884224
:1012100005D067497831884201D06549903101682D
:1012200021F0010101600EE001F0C4F90099401ABB
:10123000052808D9202262650321002084F8351092
:1012400084F8340017E73868C007EDD1534A01210C
:10125000206890422ED0A8422CD0B0422AD04045DF
:1012600028D0484526D0504524D0584522D04F4B51
:10127000183398421ED04E4B98421BD04C4B18331B
:10128000984217D04A4B3033984213D0484B4833DA
:1012900098420FD0464B603398420BD0444B783382
:1012A000984207D0424B9033984203D0404BA8332A
:1012B000984208D194F85C703F23A06D07F01F0797
:1012C000BB40836007E094F85C30A06D03F01F031F
:1012D00001FA03F34360206890424DD0A8424BD0FE
:1012E000B04249D0404547D0484545D0504543D00D
:1012F000584541D02D4A183290423DD02C4A904258
:101300003AD02B4A1832904236D0294A3032904295
:1013100032D0274A483290422ED0254A603290423D
:101320002AD0234A7832904226D0214A90329042E5
:1013300022D01F4AA83290421ED01E4A90421BD093
:101340001C4A1432904217D01A4A2832904213D0C5
:10135000184A3C3290420FD0164A503290420BD07D
:10136000144A6432904207D0124A7832904203D035
:10137000104A8C3290420BD1D4E919024260E06EDF
:1013800030B1026822F480720260D4E91C0242602B
:10139000002084F8351084F834006DE61000024017
:1013A000580002407000024088000240A000024045
:1013B00010040240085402582DE9F05F28B190F85B
:1013C0003510022904D0802141650120BDE8F09F3D
:1013D000904C904B0168183C18338E4ADFF83C92D1
:1013E000A1428D4CDFF838E28E4FDFF83CB2DFF8D7
:1013F0003CA28F4D8F4E31D091422FD099422DD0AB
:10140000A1422BD0494529D0714527D0B94225D0DA
:10141000DFF810C20CF1180C61451FD0DFF808C2CC
:10142000ACF1600C614519D0DFF8FCC1ACF1480C9F
:10143000614513D0DFF8F0C1ACF1300C61450DD03F
:10144000DFF8E4C1ACF1180C614507D0594505D06F
:10145000514503D0A94201D0B1422CD1DFF8B4C12B
:101460004FF0040880F83580ACF1180C61451DD0B0
:1014700091421BD0994219D0A14217D0494515D0AD
:10148000714513D0B94211D06648183081420DD051
:1014900065486038814209D063484838814205D0A8
:1014A00061483038814201D05F481838086820F020
:1014B00001000860ABE0D1F800C02CF00E08DFF8A6
:1014C00054C1C1F80080ACF1180C0168614527D007
:1014D000914225D0994223D0A14221D049451FD025
:1014E00071451DD0B9421BD0DFF838C10CF1180C82
:1014F000614515D0DFF830C1ACF1600C61450FD00B
:10150000DFF824C1ACF1480C614509D0DFF818C1FF
:10151000ACF1300C614503D0DFF80CC1ACF1180C14
:10152000D1F800C02CF0010CC1F800C0DFF8E48055
:101530004FF0010C0168A8F11808414546D09142CE
:1015400044D0994242D0A14240D049453ED0714555
:101550003CD0B9423AD0334A1832914236D0324A5E
:10156000603A914232D0304A483A91422ED02E4AC7
:10157000303A91422AD02C4A183A914226D0594505
:1015800024D0514522D0A94220D0B1421ED02A4AAF
:1015900091421BD0284A1432914217D0264A283251
:1015A000914213D0244A3C3291420FD0224A503209
:1015B00091420BD0204A6432914207D01E4A7832C1
:1015C000914203D01C4A8C32914218D1016E0A68B4
:1015D00022F480720A6090F85C20816D02F01F0294
:1015E0000CFA02F24A60D0E919124A60C16E31B1B8
:1015F0000A6822F480720A60D0E91C124A60002254
:10160000016D80F835C080F8342001B18847002092
:10161000DCE6000028000240580002407000024052
:1016200088000240A000024070040240880402408A
:10163000A0040240B8040240085402582DE9FC5F9F
:101640000446F74E0020DFF8D88300904FF416527E
:10165000F44808F11808A56DDFF8C493DFF8C0A3BB
:10166000016809F1300920680AF1480AB1FBF2F17A
:10167000B04201912F68D5F800C0DFF8ACB335D087
:101680004146884232D0484530D050452ED058454A
:101690002CD0E5491831884228D0E34930318842BE
:1016A00024D0E1494831884220D0E04988421DD009
:1016B000DE491831884219D0DC493031884215D0D2
:1016C000DA494831884211D0DFF860E30EF1600E4C
:1016D00070450BD0D54A7832904207D0D34B903327
:1016E000984203D0D149A83188427DD194F85C203A
:1016F000082102F01F0201FA02F23A424AD0B04237
:1017000032D0404530D048452ED050452CD0584599
:101710002AD0C54A1832904226D0C34A303290426D
:1017200022D0C14A483290421ED0C04A90421BD0BB
:10173000BE4A1832904217D0BC4A3032904213D081
:10174000BA4A483290420FD0B84A603290420BD029
:10175000B64A7832904207D0B44A9032904203D0D1
:10176000B24AA832904203D1026802F0040202E0B9
:10177000026802F008026AB1026822F00402026004
:1017800094F85C0000F01F008140A960606D40F09B
:101790000100606594F85C00012100F01F008140A9
:1017A000394240D02068B04234D0404532D048451C
:1017B00030D050452ED058452CD09B4A18329042FC
:1017C00028D0994A3032904224D0974A48329042E9
:1017D00020D0964A90421DD0944A1832904219D097
:1017E000924A3032904200E0AFE113D08F4A483243
:1017F00090420FD08D4A603290420BD08B4A7832A3
:10180000904207D0894A9032904203D0874AA8324A
:1018100090427DD1406910F0800F04D0A960606DC6
:1018200040F00200606594F85C00042100F01F00A5
:10183000814039423ED02068B04232D0404530D05D
:1018400048452ED050452CD058452AD0764A1832DB
:10185000904226D0744A3032904222D0724A4832A6
:1018600090421ED0714A90421BD0704A183290426A
:1018700017D06E4A3032904213D06C4A48329042B0
:101880000FD06A4A603290420BD0684A7832904258
:1018900007D0664A9032904203D0644AA832904200
:1018A0004ED1006810F0020F04D0A960606D40F0C6
:1018B0000400606594F85C00102100F01F00814076
:1018C000394258D02068B04234D0404532D04845E3
:1018D00030D050452ED058452CD0534A1832904223
:1018E00028D0514A3032904224D04F4A4832904258
:1018F00020D04E4A90421DD04C4A1832904219D006
:101900004A4A3032904215D0484A4832904200E06C
:1019100014E00FD0454A603290420BD0434A7832EF
:10192000904207D0414A9032904203D03F4AA832B9
:10193000904207D1006800F0080006E0006872E7F6
:101940000068B7E7006800F00400A0B1A960206853
:101950000168490304D50068000308D5A16C07E0BD
:101960000168C90503D4016821F008010160216CF8
:1019700009B12046884794F85C00202100F01F0040
:101980008140394279D02068B04232D0404530D0D1
:1019900048452ED050452CD058452AD0224A1832DE
:1019A000904226D0204A3032904222D01E4A4832FD
:1019B00090421ED01D4A90421BD01C4A18329042C1
:1019C00017D01A4A3032904213D0184A4832904207
:1019D0000FD0164A603290420BD0144A78329042AF
:1019E00007D0124A9032904203D0104AA832904257
:1019F00003D1006800F0100002E0006800F002006F
:101A0000B0B3A96094F835000428206801680FD0AD
:101A100049037ED5006800032BD4616C2AE00000E6
:101A200010000240340A00207000024010040240FE
:101A300021F0160101602068416921F080014161B7
:101A4000206C08B9A06C20B12068016821F0080161
:101A5000016094F85C303F21012003F01F03002255
:101A60009940A96084F8350084F83420216D65E040
:101A700003E0E16B09B120468847606D00287DD006
:101A8000606DC00759D02068042184F83510B04239
:101A90002BD0404529D0484527D0504525D0584522
:101AA00023D09D49884220D09B49183188421CD0C0
:101AB00099493031884218D09849884215D09749C1
:101AC0001831884211D09549303188420DD0934960
:101AD0004831884209D091496031884205D08F4908
:101AE0007831884201D08D499031016821F001019F
:101AF000016020680099019A491C0091914202D826
:101B00000168C907F6D10068C00710D003200FE0B4
:101B1000FFE70168C905ACD403680121002223F066
:101B20001003036084F8351084F83420A1E7012005
:101B300084F83500002084F83400E16C00291DD0C1
:101B400002B02046BDE8F05F0847754988421DD0C5
:101B500073491431884219D071492831884215D00F
:101B60006F493C31884211D06D49503188420DD0C7
:101B70006B496431884209D0694900E084E07831DA
:101B8000884203D066498C3188427DD194F85C80CC
:101B90000427016808F01F0807FA08F717EA0C0F76
:101BA000009746D04F0744D500980F04686003D5CE
:101BB000C8033CD4A16CC1E7880638D42068B04281
:101BC0002DD055496039884229D0484527D0504505
:101BD00025D0584523D05049884220D04E4918314D
:101BE00088421CD04C493031884218D04B49884239
:101BF00015D04A491831884211D0484930318842BD
:101C00000DD046494831884209D0704507D09042EE
:101C100005D0984203D04149A831884203D10168D8
:101C200021F0080102E0016821F004010160216C4B
:101C300084E7022707FA08F717EA0C0F00974ED03F
:101C40008F074CD500980F04686003D5C80344D4AF
:101C5000616C73E7880640D42068B0422FD02E49CB
:101C6000603988422BD0484529D0504527D0584567
:101C700025D02949884222D02749183188421ED0D0
:101C800025493031884200E044E018D02349884299
:101C900015D022491831884211D02049303188426C
:101CA0000DD01E494831884209D0704507D0904276
:101CB00005D0984203D01949A831884203D1016860
:101CC00021F0140102E0016821F00A010160012104
:101CD00084F83510002084F83400E16B2EE70822E8
:101CE00002FA08F212EA0C0F14D0090712D50168A3
:101CF00021F00E01016094F85C100120002201F037
:101D00001F0100FA01F16960606584F8350084F80C
:101D1000342012E7BDE8FC9F880002401004024016
:101D2000085402582DE9F05F044600F043FC002CF3
:101D300007467DD0E24E022120684FF00308DFF80D
:101D400084934FF00005DFF880A3B042DFF87CB346
:101D500034D0DB4A1832904230D048452ED050451E
:101D60002CD058452AD0D94A1832904226D0D74A8A
:101D70003032904222D0D54A483290421ED0D44AC6
:101D800090421BD0D24A1832904217D0D04A3032FB
:101D9000904213D0CE4A483290420FD0CC4A6032A3
:101DA00090420BD0CA4A7832904207D0C84A90324B
:101DB000904203D0C64AA83290427DD184F83510B3
:101DC000B04284F834502ED0BD49183188422AD010
:101DD000484528D0504526D0584524D0BB49183115
:101DE000884220D0B949303188421CD0B7494831A7
:101DF000884218D0B649884215D0B5491831884272
:101E000011D0B349303188420DD0B14948318842B0
:101E100009D0AF496031884205D0AD497831884258
:101E200001D0AB499031016821F00101016008E067
:101E300025E100BF00F0BEFBC01B052801D9202111
:101E40001AE120680068C007F4D1D4E902032168D0
:101E5000103418438E4694E88410D4E90338096896
:101E60003A4310439B4A40EA0C006769184311400B
:101E7000103C40EA0800042F40EA010003D1D4E9F5
:101E80000B12114308436168A1F12902052A0BD9FD
:101E9000163A032A08D9083A012A05D9083A032A2A
:101EA00002D97439032901D840F48010CEF800001B
:101EB0002068676A406900E020E0042F20F00700F6
:101EC00047EA00070DD1D4E90A01074349B120468A
:101ED000FEF70AFF28B140206065012184F8351023
:101EE000CDE0206847612046FEF71CFE94F85C2098
:101EF0003F2102F01F029140816055E0764A9042F6
:101F00001BD0754B1433984217D0734B283398422B
:101F100013D0714B3C3398420FD06F4B50339842E3
:101F20000BD06D4B6433984207D06B4B783398429B
:101F300003D0694B8C3398427ED184F8351084F8F5
:101F40003450664B0168A26801EA030E402A74D03F
:101F5000802A73D05FF00002D4E90378D4E9053118
:101F600042EAD70242EAD8085B4AD4E9077C48EA49
:101F7000D30848EAD10141EAD701524241EA1C1193
:101F8000142341EA0E01016020681044B0FBF3F015
:101F90008000E0652046FEF7C5FD94F85C20012135
:101FA00002F01F02914041602068B04257D044497E
:101FB0001831884253D0484551D050454FD05845EC
:101FC0004DD042491831884249D040493031884289
:101FD00045D03E494831884241D03D4988423ED0B3
:101FE0003B49183188423AD039493031884236D09D
:101FF00037494831884232D03549603188422ED045
:102000003349783188422AD031499031884226D0EC
:102010002F49A831884222D02F4988421FD02E490B
:10202000143188421BD02C492831884217D02A49C4
:102030003C31884213D002E01DE017E018E0264949
:10204000503188420BD024496431884207D022495C
:102050007831884203D020498C31884229D12046EA
:10206000FEF7BAFDA06880280CD00CE0102273E7C0
:102070004FF4804270E74021616584F8358001208B
:10208000BDE8F09F6560216E20790860D4E91901F0
:1020900041606068401E072808D82046FEF7EAFD28
:1020A000E06E0560D4E91C01416002E0E566256749
:1020B00065670120656584F835000020E0E70000D1
:1020C00010000240400002405800024070000240F0
:1020D000100402403F8010FE085402580F00FEFF1B
:1020E0002DE9F84F04008C464FF00000009014D00A
:1020F00094F83400012812D094F8355001200021C2
:1021000084F83400012D0CD0C002606501200090DD
:1021100084F834100098BDE8F88F0120FBE7022016
:10212000F9E78C4D0226206884F83560A8428A4D74
:1021300061658A4E8A4FDFF82C82DFF82C92DFF837
:102140002CA2DFF82CB226D0A84224D0B04222D054
:10215000B84220D040451ED048451CD050451AD02A
:10216000584518D08349884215D082491831884291
:1021700011D08049303188420DD07E4948318842A3
:1021800009D07C496031884205D07A49783188424B
:1021900001D078499031016821F001010160614668
:1021A0002046FEF7CBFD6B49206888422CD0A84220
:1021B0002AD0B04228D0B84226D0404524D0484545
:1021C00022D0504520D058451ED06A4A90421BD09C
:1021D000684A1832904217D0664A3032904213D083
:1021E000644A483290420FD0624A603290420BD02B
:1021F000604A7832904207D05E4A9032904203D0D3
:102200005C4AA83290420CD1026822F01E0242F0D1
:1022100016020260206C88B12068026842F0080251
:102220000BE0026822F00E0242F00A020260206C0B
:1022300020B12068026842F00402026020688842EF
:102240004BD0A84249D0B04247D0B84245D04045D3
:1022500043D0484541D050453FD058453DD0454AF0
:1022600090423AD0434A1832904236D0414A3032F6
:10227000904232D03F4A483290422ED03D4A60329E
:1022800090422AD03B4A7832904226D0394A903246
:10229000904222D0374AA83290421ED0364A90420D
:1022A0001BD0354A1432904217D0334A283290421C
:1022B00013D0314A3C3290420FD02F4A50329042D4
:1022C0000BD02D4A6432904207D02B4A783290428C
:1022D00003D0294A8C3290420DD1206E0268D2037D
:1022E00003D5026842F480720260E06E18B10268A1
:1022F00042F4807202602068884226D0A84224D02E
:10230000B04222D0B84220D040451ED048451CD013
:1023100050451AD0584518D01649884215D015494D
:102320001831884211D01349303188420DD01149FB
:102330004831884209D00F496031884205D00D49A3
:102340007831884201D00B499031016841F0010198
:102350000160DFE610000240280002404000024019
:10236000580002407000024088000240A000024075
:10237000B800024010040240085402582DE9F84FFA
:1023800003247A4D00234FF001094FF0B04B4FF07A
:102390000F0AE4E009FA03F6324078D00F7907F02B
:1023A0000307012F01D0022F1AD187684FEA430E8D
:1023B000D1F80CC004FA0EF827EA08070CFA0EFC54
:1023C0004CEA070CC0F808C0476891F804C0B7434E
:1023D000CCF3001C0CFA03FC4CEA070CC0F804C058
:1023E0000E79F643B6070BD0C6684FEA43088F68EC
:1023F00004FA08FC26EA0C0607FA08F73743C76018
:102400000E7906F00306022E12D1DE080F694FEA9C
:10241000437C00EB8606B646366A4FEADC6C0AFA65
:102420000CF807FA0CF726EA08063743CEF82070B6
:102430000F7906684FEA430807F0030704FA08FC1F
:1024400007FA08F726EA0C06374307604E6816F4C9
:10245000403F1CD0464E376847F002073760366869
:102460009F0706F00206009623F0030606F1B04629
:10247000B6463F0FD6F80864DFF8F8800AFA07FC82
:10248000404526EA0C0603D14FF0000C3AE065E027
:10249000DFF8E4C0604502D14FF0010C32E0DFF814
:1024A000DCC0604502D14FF0020C2BE0DFF8D0C059
:1024B000604502D14FF0030C24E0DFF8C8C060454E
:1024C00002D14FF0040C1DE0DFF8BCC0604502D122
:1024D0004FF0050C16E0DFF8B4C0604502D14FF0B4
:1024E000060C0FE0DFF8A8C0604502D14FF0070CE2
:1024F00008E0DFF8A0C0604502D14FF0090C01E010
:102500004FF00A0C0CFA07FC4CEA060CCEF808C493
:102510004F68DBF80060FF0226EA020600D516438A
:102520005F46CBF80060D1F804C0DBF804605FEAD6
:102530008C2C26EA020600D516437E606E684F6832
:1025400026EA0206BF0300D516436E602E684F6868
:1025500026EA0206FF0300D516432E605B1C0A68BC
:1025600032FA03F67FF416AFBDE8F88F800000580A
:10257000F4440258000002580004025800080258AF
:10258000000C02580010025800140258001802589B
:10259000001C025800240258426921EA02030A4042
:1025A00043EA0241816170470AB1816170470904C1
:1025B000FBE700000148806870470000280A0020FF
:1025C000026D02A1044803F073BF00004552524F50
:1025D0005225640D0A000000A8A000202DE9F0415A
:1025E000040004D094F84D00002518B107E0012044
:1025F000BDE8F08184F84C50204600F0A7F8022096
:1026000084F84D0020680168C90703D0016821F0F3
:1026100001010160206805656068042803D0062870
:1026200001D00A284DD16069022833D0E06808B192
:10263000022700E00127A068302824D0B02822D04B
:102640005FF0000600214FF4805000F063FD216927
:10265000B1F1007F19D02021D4F81420F140794342
:10266000B0FBF1F00A2100EB80004000B0FBF2F07B
:10267000401DB0FBF1F000F00101401A01294FEAC2
:1026800050000AD00BE00126DCE74FF4807162694C
:10269000F140E5E7022000210AE0012801D0FF28EF
:1026A00004D9206D40F010002065A0E700B9012199
:1026B00022680004234B40EA0160116D1940084371
:1026C0001065A76902CC94E809101843D4E90723E0
:1026D000E6684CEA070C1C4F40EA0C00D1F850E0C9
:1026E0001043184340F6F87C30430EEA070E40EAE8
:1026F0000E0040F00100086554F8040CC0F818C042
:1027000054F8040D016821F4803101602068E26909
:10271000C16821F400011143C1606068042803D03E
:10272000062801D00A2806D12068A26AC16821F0D3
:1027300000411143C1600120256584F84D0000204F
:1027400056E70000FFFF00FE4090FFFD2DE9F04F2F
:10275000B5B0804614212EA8FDF741FEB821684689
:10276000FDF73DFE02247C4AD8F800000021794D97
:102770006602E70290424FF480494FF4807A40D1DC
:1027800082148B4600201791CDE90020684600F0A6
:102790000FFE08B1FEF7E3FB6E481030016841F40C
:1027A00080510160006800F480503390286840F048
:1027B0000100286028682EAA70215D4600F0010003
:1027C0003390052082E83200CDE931B063482EA96C
:1027D000FFF7D4FD624C2521624820604FF40030A1
:1027E000C4E901150C3484E8E006C4E905055C4839
:1027F000A7E000BFC8F84840C4F8388035B0BDE84D
:10280000F08F594A90424ED182148B460020179186
:10281000CDE90020684600F0CBFD08B1FEF79FFB34
:102820004C480830016841F480410160006800F4C0
:1028300080403390286840F004002860286800F049
:1028400004003390286840F00200286028680524BE
:1028500004215D4600F00200339002202E91CDE964
:102860002F0B42482EA9CDE931B4FFF787FD022096
:10287000A1022E91CDE92F053D482EA9CDE9315475
:10288000FFF77CFD364C27213A48783420604FF41E
:102890008030C4E901150C3484E8E006C4E905057C
:1028A000A4F10C004DE0344A9042A7D100228B469F
:1028B000831468461791CDE9003200F079FD08B124
:1028C000FEF74DFB23480830016841F400410160E8
:1028D000006800F400403390286840F00100286050
:1028E000286800F001003390286840F00400286058
:1028F00028682EAA4FF400415D4600F004004FF016
:10290000060B82E83200CDE932B014482EA9319589
:10291000FFF734FD2EA84FF4406180E832001348E1
:102920002EA9CDE9315BFFF729FD0D4C1148F0349C
:1029300018303D2123C4A4F10C0084E8E006656151
:10294000A5610C3CFFF7EEF900283FF453AFFEF70A
:1029500006FB4FE7E04402580030014000000258F7
:10296000809C0020100002400038004000080258FF
:102970000004025810040240003C004070B50446B8
:1029800029B122B194F84D0001282FD101E0012096
:1029900070BD94F84C00012828D00025012684F849
:1029A0004C60042084F84D002565616322876287AE
:1029B000E56225866586A16C1A480864A16C1A48F0
:1029C000C863A16C1948C864638F2168626BA06CEE
:1029D0003031FFF785FB58B1216D304641F00801D9
:1029E000216584F84D6084F84C5070BD022070BDA4
:1029F00020688168490403D4816841F48041816082
:102A000020680168C90703D1016841F00101016034
:102A1000216828460A6842F400720A6084F84C5023
:102A200070BD0000D3520008B1520008895200085E
:102A30002DE9F0411F4E0746707818B920481EA1B5
:102A400003F036FD1B4D4FF002081E4805F103054B
:102A5000874205F1030405D17078012815D020784C
:102A6000401C20701848874205D17078012816D084
:102A70006078401C60702078052804D960780528AB
:102A800001D901207070BDE8F081287820B10C4890
:102A90000EA103F00DFDE5E785F80080E2E7687818
:102AA00020B107480DA103F003FDE4E785F801809C
:102AB000E1E70000140A0020696E3A320D0A0000B6
:102AC000A8A00020849B0020D89B00206869327356
:102AD000315F62757A793A320000000068693273BA
:102AE000325F62757A793A32000000002DE9F041D8
:102AF000154D0646687818B9164814A103F0D8FC9D
:102B000015484FF00107104C864204F1030408D128
:102B10006878012805D1207888B10E480FA103F00C
:102B2000C7FC124886420DD1687801280AD1607826
:102B300038B1BDE8F04107480DA103F0B9BC2770DA
:102B4000EFE76770BDE8F081140A0020696E3A3142
:102B500000000000A8A00020849B00206869327358
:102B6000315F62757A793A3100000000D89B00200D
:102B700068693273325F62757A793A310000000019
:102B8000024881680278114481607047280A002059
:102B9000032010B500F088F801F01CFA0F4A104924
:102BA00014681368C4F3032203F00F038A5CC95C42
:102BB00002F01F0201F01F01D0400A4A20FA01F181
:102BC000116009490860002000F010F808B10120E8
:102BD00010BD00F02BF8002010BD00001844025872
:102BE00034550208380A0020340A002070B50D4D13
:102BF00004462878A0B14FF47A71B1FBF0F00A498D
:102C00000968B1FBF0F001F014FD48B9102C07D2AF
:102C100000222146501E00F027F800206C6070BD95
:102C2000012070BD280A0020340A0020064882B026
:102C3000016841F002010160006800F002000090AC
:102C4000052002B000F030B8F4440258002809DB37
:102C5000410900F01F028900012001F1E0219040AC
:102C6000C1F80001704700000E4BF0B41B680D4620
:102C7000C3F30223C3F10706042E00D90426191D4D
:102C8000072901D2002300E0DB1E012404FA06F12B
:102C90009C40491E2940641E994014402143F0BCC9
:102CA00003F055BC0CED00E0064900F0070210B53A
:102CB0004FF6FF040868044B204040EA0220184306
:102CC000086010BD0CED00E00000FA05134970B576
:102CD0000A68D243520705D5096801F0070181420D
:102CE00013D118E00A6822F0070202430A60FFF7D6
:102CF00061FC0A4D4FF47A760446083D07E000BFB8
:102D0000FFF758FC001BB04201D9012070BD2868B4
:102D1000C0438004F4D4002070BD00000C48025869
:102D200010B501F011F905490968054AC1F302110E
:102D3000515C01F01F01C84010BD00002044025842
:102D4000345502084A4930B5494C0B1D0A680C3409
:102D500009681D68246802F0030305F00102C1F34D
:102D60000511C4F3CC04002914FB02F200EE102A72
:102D7000F8EE400A76D0414A9FED3E1ADFED3E1A4A
:102D8000B7EE000A23B1012B5AD0022B18D15CE018
:102D9000374C283C23689B0612D5394B246801EE3A
:102DA000901A1168C4F3C104F8EE612AE34001EE01
:102DB000903AC1F30801F8EE611A81EEA22A07E009
:102DC00002EE101A1168F8EE422A81EEA22A45E0BE
:102DD00001EE901A1168F8EE611A40EE811A71EE58
:102DE000800A62EE200AC1F3462101EE101AB8EE05
:102DF000411A31EE001AC0EE811ABCEEE11A80EDE4
:102E0000001A1168C1F3064101EE101AB8EE411A1A
:102E100031EE001AC0EE811ABCEEE11A80ED011A03
:102E20001168C1F3066101EE101AB8EE411A31EED5
:102E3000000A80EE801ABCEEC10A80ED020A30BDA5
:102E400001EE901ADFED0F2A03E001EE901ADFED9C
:102E50000E2A1168F8EE611A82EEA12AC1F3080168
:102E6000B6E7FFE7002101604160816030BD0000EE
:102E700028440258000000390024744C30440258A1
:102E80000090D0030024744A0024F44A494930B524
:102E9000484C0B1D0A68143409681D68246802F048
:102EA0000303C5F30012C1F30531C4F3CC040029B8
:102EB00014FB02F200EE102AF8EE400A75D03F4AE9
:102EC0009FED3D1AB7EE000A6BB1DFED3D1A012B05
:102ED00001D0022B64D002EE101A1168F8EE422ADB
:102EE00081EEA22A21E0334C283C23689B0612D5B0
:102EF000344B246801EE901A1168C4F3C104F8EE53
:102F0000612AE34001EE903AC1F30801F8EE611A3C
:102F100081EEA22A0BE001EE901ADFED2B2A00BF12
:102F2000F8EE611A116882EEA12AC1F3080101EEE0
:102F3000901A1168F8EE611A40EE811A71EE800A5B
:102F400062EE200AC1F3462101EE101AB8EE411AD2
:102F500031EE001AC0EE811ABCEEE11A80ED001AC3
:102F60001168C1F3064101EE101AB8EE411A31EEB4
:102F7000001AC0EE811ABCEEE11A80ED011A116848
:102F8000C1F3066101EE101AB8EE411A31EE000AE3
:102F900080EE801ABCEEC10A80ED020A30BD04E06A
:102FA00001EE901ADFED092ABAE7002101604160C5
:102FB0008160F3E728440258000000393844025881
:102FC0000024744A0090D0030024744C0024F44A76
:102FD000494930B5484C0B1D0A681C3409681D6806
:102FE000246802F00303C5F30022C1F30551C4F3C2
:102FF000CC04002914FB02F200EE102AF8EE400A7D
:1030000075D03F4A9FED3D1AB7EE000A6BB1DFED78
:103010003D1A012B01D0022B64D002EE101A116868
:10302000F8EE422A81EEA22A21E0334C283C2368A4
:103030009B0612D5344B246801EE901A1168C4F334
:10304000C104F8EE612AE34001EE903AC1F30801B1
:10305000F8EE611A81EEA22A0BE001EE901ADFED84
:103060002B2A00BFF8EE611A116882EEA12AC1F383
:10307000080101EE901A1168F8EE611A40EE811A0B
:1030800071EE800A62EE200AC1F3462101EE101AA9
:10309000B8EE411A31EE001AC0EE811ABCEEE11A08
:1030A00080ED001A1168C1F3064101EE101AB8EE66
:1030B000411A31EE001AC0EE811ABCEEE11A80ED21
:1030C000011A1168C1F3066101EE101AB8EE411A37
:1030D00031EE000A80EE801ABCEEC10A80ED020AD1
:1030E00030BD04E001EE901ADFED092ABAE70021B5
:1030F000016041608160F3E7284402580000003914
:10310000404402580024744A0090D0030024744CB8
:103110000024F44A2DE9F04FA24A0546DFF880A2C8
:1031200080F48070DFF8809289B013119F4C0843BF
:10313000AAF104064FF0805C4FF000584FEAE2001D
:1031400028D0DFF85CB285F480670F430BF1080BE1
:103150004FD085F400670F4360D085F480570F434C
:1031600072D085F400570F434FF480394FF4003E7E
:1031700069D085F400270F4373D085F480370F435F
:1031800070D085F480460E436DD085F400420A432A
:103190006AD02AE0DAF8001001F00701052924D2EC
:1031A000DFE801F0F9AA6A259F0006A8FFF7CAFD2B
:1031B000079809B0BDE8F08F6846FFF767FE0098F2
:1031C000F7E703A8FFF704FF0398F2E72068C0F3CE
:1031D000C10022FA00F0ECE72268D20573D5614500
:1031E00071D11846E5E74145E3D00020E1E74846C4
:1031F000DFE7DBF8001001F46001B1F5800F3BD090
:1032000005DC00294AD0B1F5001FEED174E0B1F51C
:10321000C00FECD0B1F5000FE7D162E0DBF8001091
:1032200001F0E061B1F1007F26D004DCB1B3B1F16F
:10323000807FDAD160E0B1F1407FD8D0B1F1806F0A
:10324000D3D14EE000E01BE0DAF8001001F4E041D9
:10325000B1F5005F10D008DC01B3B1F5805FC4D1D7
:103260004AE035E058E065E088E0B1F5405FBED067
:10327000B1F5804FB9D134E020688000B5D5A0E722
:10328000DAF8001001F4E021B1F5403F6DD006DC22
:1032900061B149457BD07145A7D158E07BE0B1F5DC
:1032A000802F66D0B1F5A02F9FD10DE000F06EFE0B
:1032B0007FE76846FFF7EAFD01987AE703A8FFF782
:1032C00087FE049875E723E0216889038AD48CE798
:1032D000DBF8001011F440310ED0494510D0714593
:1032E00083D13168256801F040516D077FF574AFD7
:1032F00000297FF471AF69E720680001E7D55BE73B
:1033000020688000E3D503A8FFF762FE059850E728
:1033100022689203DBD566E7306810F480303AD03B
:103320004845D4D120680001D1D56846FFF7AEFDED
:1033300002983EE7DBF8001001F0E041B1F1405F98
:1033400013D008DC71B1614521D04145BFD120685F
:103350008000B3D449E7B1F1804F0AD0B1F1A04F5A
:10336000B2D042E7FFF7DCFC23E720684007AED588
:103370002CE72068C005AAD533E708E0DAF800108A
:1033800011F04051A0D0614505D041459FD1206842
:1033900000018ED429E72068800198D505E7000058
:1033A000504402580090D0030080BB0000440258F3
:1033B0002DE9FE4F0546DFF800A450F8081B002455
:1033C000FD4FC943019005F1280026460AF1240A61
:1033D000009008011DD4686E50B1B0F5801F0CD06C
:1033E000B0F5001F0ED0B0F5401F1ED001240FE035
:1033F000386840F40030386017E00198022102F08C
:1034000085FA03E00098022102F010FB04000CD0C2
:1034100026462888C043C00523D4A86D05281ED29F
:10342000DFE800F00C11161B1B006A6EDAF80010C2
:1034300021F440111143CAF80010EAE7386840F45B
:103440000030386009E00198002102F05FFA03E0E3
:103450000098002102F0EAFA0446C4B100E0012419
:1034600026462888DFF85083C04308F12C08400521
:103470002FD4D5F8A400B0F5C00F28D010DCB8B117
:10348000B0F5001F19D0B0F5800F0FD11AE0AA6D6A
:10349000DAF8001021F007011143CAF80010E0E744
:1034A000B0F5000F13D0B0F5200F10D001240FE0BD
:1034B000386840F40030386009E00198002102F0DB
:1034C00025FA03E00098002102F0B0FA044694B116
:1034D00026462888C043000530D4D5F8A800B0F1AE
:1034E000407F29D011DCC0B1B0F1807F1AD0B0F19B
:1034F000007F10D11BE0D5F8A420D8F8001021F4EB
:1035000060011143C8F80010E3E7B0F1806F13D0F9
:10351000B0F1A06F10D001240FE0386840F4003003
:10352000386009E00198002102F0F0F903E000980A
:10353000002102F07BFA044694B126462868DFF8A1
:1035400078B2C0430BF1200B80011FD4E86CD8B1D6
:1035500010280FD0202812D0302815D0012414E0D4
:10356000D5F8A820D8F8001021F0E0611143C8F880
:103570000010E3E7386840F40030386004E0019858
:10358000022102F0C3F9044674B126462888C043DC
:10359000C0042BD4E86DB0F5005F20D00DDCA0B1E5
:1035A000B0F5805F0FD115E0EA6CDBF8001021F078
:1035B00030011143CBF80010E8E7B0F5405F13D0BD
:1035C000B0F5804F10D001240FE0386840F400308F
:1035D000386009E00198002102F098F903E00098B2
:1035E000002102F023FA04468CB126462888C04305
:1035F000800429D4286EB0F5403F23D010DC08B3F6
:10360000B0F5803F14D0B0F5003F0FD115E0EA6D62
:10361000DAF8001021F4E0411143CAF80010E5E7A0
:10362000B0F5802F0ED0B0F5A02F0BD001240AE00A
:103630000198012102F06AF903E00098012102F0EB
:10364000F5F9044694B126462888C04340042AD49C
:10365000D5F8AC00B0F1405F23D010DC08B3B0F176
:10366000805F14D0B0F1005F0FD115E02A6EDAF858
:10367000001021F4E0211143CAF80010E4E7B0F192
:10368000804F0ED0B0F1A04F0BD001240AE001987A
:10369000012102F03BF903E00098012102F0C6F994
:1036A000044674B126462888C04300041FD4E86E3F
:1036B000D8B1B0F1805F0ED0B0F1005F10D001241E
:1036C00014E0D5F8AC20D8F8001021F0E041114307
:1036D000C8F80010E7E7386840F40030386004E0CC
:1036E0000198012102F012F9044674B126462868B7
:1036F000C043C0011ED4A86CD0B101280ED002284E
:1037000011D0032814D0012413E0EA6EDAF8001077
:1037100021F040511143CAF80010E8E7386840F43E
:103720000030386004E00198022102F0EFF804460E
:103730006CB126462868C043400255D41F48016832
:1037400041F480710160FEF735FF81460EE0AA6CFE
:10375000DBF8001021F003011143CBF80010E9E77A
:10376000FEF728FFA0EB090064283BD81348006847
:10377000C005F5D5BCBBDFF84090B5F8B01009F135
:103780004409D9F8000001F4407100F44070884207
:1037900011D0D9F80010D9F8002021F4407142F47A
:1037A0008032C9F80020D9F8002022F48032C9F80C
:1037B0000020C9F8001003E02C44025800480258C9
:1037C000D5F8B000B0F5807F19D1FEF7F3FE029076
:1037D00011E000BFFEF7EEFE0299411A41F2883077
:1037E000814208D9032426462878DFF81494C04380
:1037F000C00721D03CE0D9F800008007EAD5D5F811
:10380000B010C1F301200328FE480DD0016821F457
:103810007C510160B5F8B020D9F80010C2F30B025A
:103820001143C9F80010DFE7F74A036802EA1112F2
:1038300023F47C511143ECE7A86F182816D005DC5F
:10384000A0B1082808D0102804D10AE020280DD003
:1038500028280BD001240AE00198012102F056F833
:1038600003E00098012102F0E1F8044664B1264625
:103870002878C04380071ED4686F062819D2DFE875
:1038800000F0160C11161616AA6FD9F8001021F0C8
:1038900038011143C9F80010EAE70198012102F04C
:1038A00035F803E00098012102F0C0F804467CB12D
:1038B00000E0012426462878C04340071FD4D5F8ED
:1038C0009000062819D2DFE800F0160C1116161623
:1038D0006A6FD9F8001021F007011143C9F80010F0
:1038E000E9E70198012102F011F803E000980121B5
:1038F00002F09CF80446A4B100E001242646287892
:10390000C04380062BD4D5F88C00B0F1405F24D0A2
:1039100011DC10B3B0F1805F15D0B0F1005F10D1B1
:1039200016E0D5F89020D8F8001021F007011143D7
:10393000C8F80010E3E7B0F1804F0ED0B0F1A04F0F
:103940000BD001240AE00198002101F0DFFF03E021
:103950000098022102F06AF8044694B126462878BD
:10396000C04340062BD4D5F89800B0F5406F24D062
:1039700011DC10B3B0F5806F15D0B0F5006F10D129
:1039800016E0D5F88C20D9F8001021F0E041114361
:10399000C9F80010E3E7B0F5805F0ED0B0F5A05F86
:1039A0000BD001240AE00198002101F0AFFF03E0F1
:1039B0000098022102F03AF8044694B1264628788D
:1039C000C04300062BD4D5F89C00B0F5C04F24D0DE
:1039D00011DC10B3B0F5005F15D0B0F5804F10D1F9
:1039E00016E0D5F89820D8F8001021F4E0511143E2
:1039F000C8F80010E3E7B0F5004F0ED0B0F5204F47
:103A00000BD001240AE00198002101F07FFF03E0C0
:103A10000098022102F00AF8044654B1264628789C
:103A2000C04300071ED4D5F88000B0F5805F0AD0EF
:103A30000FE0D5F89C20D8F8001021F46041114324
:103A4000C8F80010EBE70098022101F0EFFF00B189
:103A50000126D5F88020D9F8001021F440511143F7
:103A6000C9F800102878C043C00613D4D5F89400D4
:103A7000B0F5807F05D10098022101F0D7FF00B199
:103A80000126D5F89420D8F8001021F44071114394
:103A9000C8F800102868C043000316D4D5F8A00069
:103AA00038B1B0F5803F09D0B0F5003F0BD001240C
:103AB0000AE00198002101F029FF03E000980221AB
:103AC00001F0B4FF04468CB126462868C043400389
:103AD00022D4D5F88400B0F5801F11D0B0F5001FB6
:103AE00013D0B0F5401F15D0012414E0D5F8A02064
:103AF000D8F8001021F440311143C8F80010E4E771
:103B0000386840F40030386004E00098012101F08A
:103B10008DFF04465CB126462868C043C0031CD410
:103B2000286D70B1B0F5803F10D0012414E0D5F8B5
:103B30008420D9F8001021F440111143C9F8001075
:103B4000EAE7386840F40030386004E00198022168
:103B500001F0DCFE0446DCB126462868C043800044
:103B600005D40098022101F061FF00B10126286808
:103B7000C04380031BD4E86FB8B1B0F5807F10D08C
:103B8000B0F5007F11D0B0F5407F0ED001240DE0DC
:103B90002A6DDBF8001021F480311143CBF80010BE
:103BA000DBE7386840F4003038607CB3264628688C
:103BB000C043C00207D42A6FDAF8001021F0004198
:103BC0001143CAF800102868C043800207D4AA6EC7
:103BD000DAF8001021F080711143CAF8001028684B
:103BE000C043400009D40748016821F40041016046
:103BF0000168D5F8B420114301602868C04306E08D
:103C00005444025810440258CFFFFF001DE007D46F
:103C10006A6DDBF8001021F040511143CBF8001021
:103C20002868C043000208D4D5F88820D9F80010CD
:103C300021F440011143C9F8001028790024C04341
:103C400000F00100204309D00EE0EA6FD9F800101F
:103C500021F440711143C9F80010A8E70198002130
:103C600001F054FE00B106462879C04300F002007E
:103C7000204305D10198012101F048FE00B106461C
:103C80002879C04300F00400204305D101980221A7
:103C900001F03CFE00B106462879C04300F0080060
:103CA000204305D10098002101F0C0FE00B1064676
:103CB0002879C04300F01000204305D1009801216D
:103CC00001F0B4FE00B106462879C04300F02000A0
:103CD000044304D10098022101F0A8FE00B916B1F6
:103CE0000120BDE8FE8F0020FBE700002DE9F05F1A
:103CF00004000F467ED0DFF83882D8F8000000F0CC
:103D00000F00B8420CD2D8F8001021F00F0139434F
:103D1000C8F80010D8F8000000F00F00B84269D1D0
:103D20002078844D40070AD52069296801F0700188
:103D3000884204D9296821F0700101432960207864
:103D40007C4E361D00070AD56069316801F07001AC
:103D5000884204D9316821F0700101433160207834
:103D6000C0060AD5A069316801F4E061884204D92F
:103D7000316821F4E061014331602078DFF8B4B1AB
:103D800080060BF1080B0CD5E1695846DBF80020E2
:103D900002F07002914204D9026822F070020A43D4
:103DA0000260207880070AD5E068296801F00F01D9
:103DB000884204D9296821F00F0101432960207845
:103DC000C0073ED05B49A2682868183920F47060AB
:103DD000104328606068022818D0032819D00968A9
:103DE000012819D0490700294ADADFF848A1AAF1C9
:103DF000080A00E044E0DAF8002022F0070202435B
:103E0000CAF80020FEF7D6FB814612E00968890354
:103E1000E9E709688901E6E7C905E4E7FEF7CAFBB7
:103E2000A0EB090141F28830814202D90320BDE8AC
:103E3000F09F6168DAF8000000F03800B0EBC10FC5
:103E4000ECD1207880070AD5E068296801F00F01DD
:103E5000884204D2296821F00F0101432960D8F873
:103E60000010404601F00F01B9420BD9016821F062
:103E70000F0139430160006800F00F00B84201D023
:103E80000120D4E7207840070AD52069296801F08D
:103E90007001884204D2296821F070010143296031
:103EA000207800070AD56069316801F07001884206
:103EB00004D2316821F07001014331602078C006DE
:103EC0000AD5A069316801F4E061884204D2316802
:103ED00021F4E06101433160207880060CD5E1696E
:103EE0005846DBF8002002F07002914204D20268CA
:103EF00022F070020A43026000F06CF80E492A6852
:103F00002B68C2F3032203F00F038A5CC95C02F042
:103F10001F0201F01F01D040084A20FA01F1116090
:103F20000749086007480068BDE8F05FFEF75EBE1D
:103F3000002000521844025834550208380A002064
:103F4000340A00202C0A002030B500F043F80B4A58
:103F50000B490C4B15681468C5F3032204F00F04D9
:103F60008A5C095D02F01F0201F01F01D040064A81
:103F700020FA01F119601060084630BD184402585B
:103F800034550208380A0020340A002000B5FFF733
:103F9000DBFF05490968054AC1F30211515C01F0D4
:103FA0001F01C84000BD00001C44025834550208DF
:103FB00000B5FFF7C9FF05490968054AC1F30221A9
:103FC000515C01F01F01C84000BD00001C440258B4
:103FD00034550208454970B545480968434B103BC4
:103FE00011F0380208D00111082A03D0102A0BD092
:103FF000182A0BD0084670BD19688906FBD51968C8
:10400000C1F3C101C84070BD3A4870BD3749374D52
:1040100018310C1D24350A68096826682D6802F0DD
:10402000030406F00102C1F30511C5F3CC0515FB2D
:1040300002F200EE102AB8EE400AE9B32F4ADFED93
:104040002E0AB7EE001A6CB1DFED2D1A012C01D04B
:10405000022C43D002EE101A1068F8EE422A81EECC
:10406000A22A1EE01C68A40611D51B6801EE901A56
:104070001168C3F3C103F8EE612AD84001EE900A3B
:10408000C1F30800F8EE611A81EEA22A0BE001EEFE
:10409000901ADFED1C2A00BFF8EE611A106882EE5C
:1040A000A12AC0F3080001EE900AF8EE611A40EE72
:1040B000201A31EE810A00E015E022EE000A1068B5
:1040C000C0F34620401C00EE900AF8EE600A80EE35
:1040D000201ABCEEC10A10EE100A70BD01EE901A53
:1040E000DFED092AD8E7002070BD00001044025817
:1040F0000090D00300127A000000003930440258CA
:104100000024744A0024744C0024F44A2DE9F05F22
:1041100004007DD0FF4F2078FE4D1837DFF8F48380
:10412000103DC00748D0D8F80000396800F03800CA
:10413000102815D0182803D101F0030002280FD051
:104140006068B0F5803F12D010B1B0F5A02F18D044
:10415000286820F480302860286820F4802009E056
:104160002868800328D560680028D2D024E0286819
:1041700040F480302860606888B1FEF71BFA06467C
:1041800009E0286840F480202860F0E7FEF712FA82
:10419000801B64287ED828688003F7D50CE0FEF7E2
:1041A00009FA064605E000BFFEF704FA801B642802
:1041B000F0D828688003F7D42078800756D5D8F83F
:1041C0000000DFF85093396810F03800A9F10C09AD
:1041D0000ED0182801D188070AD0E068A8B3296852
:1041E00021F0190101432960FEF7E4F9064628E0B1
:1041F0002868400702D5E06800288AD0E16828686E
:1042000020F0190008432860FEF7D4F9064606E0BE
:10421000D2E000BFFEF7CEF9801B0228BAD828688A
:104220004007F7D5217CD9F8002022F0FE4242EA6F
:104230000161C9F8001019E0FEF7BCF9801B0228E3
:10424000A8D828684007F7D5ECE7FFE7286820F0F2
:1042500001002860FEF7AEF9064604E0FEF7AAF971
:10426000801B022896D828684007F7D42078C0061B
:1042700046D5D8F80000DFF89C92396800F0380085
:10428000A9F10409082812D0182805D101F003006B
:10429000012800E0CEE00AD0E0690028286820D09C
:1042A00040F080002860FEF785F9064615E0286892
:1042B000C00502D5E06980287ED194F82010D9F895
:1042C000002022F07C5242EA0161C9F8001017E098
:1042D000FEF770F9801B0228A0D82868C005F7D522
:1042E000EBE720F080002860FEF764F9064604E062
:1042F000FEF760F9801B022890D82868C005F7D423
:104300002078000729D583486169643000298146F7
:10431000016811D041F001010160FEF74BF906463A
:1043200005E000BFFEF746F9801B022888D8D9F8BF
:1043300000008007F6D510E021F001010160FEF7D2
:1043400039F9064605E000BFFEF734F9801B022864
:1043500070D8D9F800008007F6D42078800623D5DD
:10436000A0690028286810D040F480502860FEF72B
:1043700021F9064605E000BFFEF71CF9801B022864
:1043800058D828688004F7D50EE020F480502860C3
:10439000FEF710F9064604E0FEF70CF9801B022830
:1043A00048D828688004F7D42078400751D5DFF832
:1043B0006891D9F8001000E015E141F48071C9F866
:1043C0000010FEF7F7F8064605E000BFFEF7F2F82A
:1043D000801B64282ED8D9F80000C005F6D54D4EB4
:1043E000A068603601280AD008B1052813D03068CB
:1043F00020F001003060306820F0040002E03068F6
:1044000040F001003060A06841F2883A98B1FEF7B0
:10441000D1F881460AE0306840F004003060EEE7F1
:10442000FEF7C8F8A0EB0901514503D830688007B2
:10443000F6D50EE072E0FEF7BDF8814606E000BF5B
:10444000FEF7B8F8A0EB0901514567D8306880073E
:10445000F6D4606A00287CD0DFF8B8A0D8F8001045
:104460000AF1200A4FF6F87B0AF10408C1F3C201F1
:104470000329AAF104096DD00228286820F0807071
:10448000286003D0FEF796F8044681E0FEF792F824
:10449000064604E0FEF78EF8801B022875D82868CF
:1044A0008001F7D4E26A40F2F331386854F8283FCB
:1044B000884340EA021018433860217B4FF4FE0C19
:1044C00022894FF0FE47208A4902267D521E401E57
:1044D000A1F5007189B2C2F308021143761E0CEAFD
:1044E00000400143484607EA06621143CAF800103B
:1044F000D9F8001021F00101C9F80010D8F80030F7
:10450000266A23EA0B0343EAC601C8F80010D9F86B
:10451000001004E0104402580048025835E0A26937
:1045200021F00C011143C9F800100168E26921F083
:10453000020111430160016841F4803101600168AA
:1045400041F400310160016841F48021016001689B
:1045500001E06CE020E041F001010160286840F0DA
:1045600080702860FEF726F8044604E0FEF722F883
:10457000001B022809D828688001F7D557E000BF42
:10458000FEF718F8001B022802D90320BDE8F09FAF
:1045900028688001F4D44AE039680128DAF800007C
:1045A00021D0A26A01F0030393421CD1E26AC1F355
:1045B00005118A4217D1216BC0F30802491E8A42B5
:1045C00011D1616BC0F34622491E91420BD1A16B00
:1045D000C0F30642491E914205D1E16BC0F306606B
:1045E000491E814201D00120D0E7A16C4646D8F88F
:1045F0000000C0F3CC00814219D0D9F800004D462C
:1046000020F00100C9F80000FDF7D4FF4FEA0007D1
:10461000FDF7D0FFB842FBD0A26C306820EA0B0057
:1046200040EAC2003060286840F0010028600020A5
:10463000ACE7401EB0F1807F10B501D3012010BD62
:104640004FF0E02460610F21601701F080FF00202F
:10465000A0610721216110BD7047704770470000BD
:10466000F0B590F83C20012A41D0224E012480F878
:104670003C40022280F83D2002681F4D5368B24240
:10468000D2F808C001D0AA4203D14F6823F47003C6
:104690003B430F6823F070031F4357600268B24228
:1046A00019D0B2F1804F16D0144B9A4213D0144B4C
:1046B0009A4210D0134B9A420DD0AA420BD0124B03
:1046C0009A4208D0114B9A4205D0114B9A4202D01F
:1046D000104B9A4204D189682CF0800319439160F1
:1046E000002180F83D4080F83C100846F0BD0220D3
:1046F000F0BD000000000140000401400004004043
:1047000000080040000C004000180040004001403C
:1047100000E0004000E4004010B5040003D094F82D
:104720003D0010B107E0012010BD002084F83C00DE
:10473000204600F023F8022084F83D002068211D67
:1047400001F0C2FA012084F8480084F83E0084F8A1
:104750003F0084F8400084F8410084F8420084F867
:10476000430084F8440084F8450084F8460084F847
:10477000470084F83D00002010BD000008B5154A30
:104780000168154891420ED1016841F002010160B3
:1047900000680222012100F0020000901D20FEF7B7
:1047A00063FA1D2010E00D4A914211D1016841F0D9
:1047B0000401016000680322012100F00400009060
:1047C0001E20FEF751FA1E20BDE80840FEF73EBA53
:1047D00008BD000000040040E84402580008004002
:1047E00090F83D10012901D0012070471A4A02219A
:1047F00080F83D100168CB6843F00103CB6000688E
:1048000090421AD0B0F1804F17D01449884214D08A
:104810001349884211D0134988420ED01249884268
:104820000BD01249884208D01149884205D011495D
:10483000884202D01049884207D181680F4A11404E
:10484000062906D0B1F5803F03D0016841F001018F
:10485000016000207047000000000140000400409B
:1048600000080040000C0040000401400018004017
:104870000040014000E0004000E40040070001006B
:1048800070B5044690F83C000025012814D03A4B3E
:10489000012684F83C60022084F83D00226890687C
:1048A000184020F47F409060086870282FD010DCFA
:1048B00010F00F0F03D022E04FF0020070BD4FEA5E
:1048C0002012072A1BD2DFE802F0535353534B390F
:1048D0004100B0F1101F4BD009DCB0F5805F0FD064
:1048E000B0F5005F1ED0B0F5801F08D140E0A0F504
:1048F000801120393CD010293AD0202938D0012508
:1049000084F83D60002084F83C00284670BD4A6869
:104910002068D1E9021301F043FA2068816841F070
:10492000770109E04A682068D1E9021301F038FAFA
:104930002068816841F480418160E1E7CA68496884
:10494000206801F041FA2068502106E0CA684968F1
:10495000206801F04AFA2068602101F02BFACFE7C5
:10496000CA684968206801F02FFA20684021F4E7FE
:10497000226801461046F0E788FFCEFF704770B509
:104980000446006800250169C943890715D4C16838
:10499000C943890711D4EA1E0261012121772068E9
:1049A00080698007204602D0FFF7E8FF04E000F0AE
:1049B000A7F8204600F0A5F8257720680169C943CB
:1049C000490717D4C168C943490713D402216FF0BE
:1049D0000402026121772068806910F4407F20463C
:1049E00002D0FFF7CBFF04E000F08AF8204600F089
:1049F00088F8257720680169C943090716D4C1687A
:104A0000C943090712D404216FF00802026121771B
:104A10002068C0698007204602D0FFF7AFFF04E09E
:104A200000F06EF8204600F06CF8257720680169E8
:104A3000C943C90617D4C168C943C90613D408219C
:104A40006FF01002026121772068C06910F4407F86
:104A5000204602D0FFF792FF04E000F051F8204614
:104A600000F04FF8257720680169C943C90708D1CC
:104A7000C168C943C90704D1891E0161204600F0FD
:104A800041F820680169C943090609D4C168C943CE
:104A9000090605D46FF0800101612046FFF7DDFDB6
:104AA00020680169C943C90509D4C168C943090619
:104AB00005D46FF4807101612046FFF7CDFD2068B9
:104AC0000169C943490609D4C168C943490605D4E7
:104AD0006FF040010161204600F038F8206801695C
:104AE000C94389060BD4C168C943890607D46FF04E
:104AF000200101612046BDE87040FFF7AFBD70BDE9
:104B0000704770470E4930B4884216D10D4A10786C
:104B1000012812D1937801020B485B1CDBB2937021
:104B20000A2B07D30223137000249470224630BC52
:104B3000FDF73ABD30BCFDF72FBD30BC704700001B
:104B4000E89D0020140A002000080258704730B584
:104B500090F88410012918D0012280F884202421A3
:104B6000C0F888100022202401680B680D6823F02B
:104B7000005325F001050D60426601680B60C0F826
:104B8000884080F88420104630BD022030BD704738
:104B9000704770B5044690F8840001281DD00122AA
:104BA00084F884202420C4F88800206805680268FE
:104BB00022F0010202602068826822F060620A43EB
:104BC0008260204601F024F922682021002015602F
:104BD000C4F8881084F8840070BD022070BD70B5E0
:104BE000044690F8840001281DD0012284F8842016
:104BF0002420C4F8880020680568026822F00102B9
:104C000002602068826822F060420A438260204687
:104C100001F0FEF82268202100201560C4F88810F9
:104C200084F8840070BD022070BD704770477047E3
:104C30002DE9F04107680025044640F60F030226DF
:104C4000F8693968BA6818420AD183067ED501F03E
:104C5000200302F0805C53EA0C0377D0616F74E1AB
:104C6000CF4BDFF840C3134001EA0C0C53EA0C0CA5
:104C70006CD05FEAC07C0CD05FEAC15C09D54FF014
:104C8000010CC7F820C0D4F8907047F00107C4F8B1
:104C90009070870709D5D70707D027683E62D4F8F8
:104CA000906046F00406C4F8906046070AD5D6071F
:104CB00008D0276804263E62D4F8906046F00206C9
:104CC000C4F8906006070CD501F020061E4308D0FA
:104CD000266808233362D4F8903043F00803C4F800
:104CE000903003050BD54B0109D526684FF40063BE
:104CF0003362D4F8903043F02003C4F89030D4F8F5
:104D00009030002B3DD0800609D501F0200002F044
:104D10008051084303D0616F09B12046884721685C
:104D2000D4F890008968490602D410F0280F2AD0E0
:104D3000204601F053F92068806840061ED520689F
:104D4000083050E8001F21F0400100E021E040E879
:104D50000012002AF3D1D4F8800078B1924901659D
:104D6000D4F88000FCF728FB00280AD0D4F8800093
:104D7000016D00E02046BDE8F04108472046FFF7FE
:104D800056FFBDE8F0812046FFF751FFC4F8905070
:104D9000F7E7D4F86CC02023BCF1010F7ED15FEAA5
:104DA000C06C7BD55FEAC16C78D510203862206872
:104DB0008068400673D5D4F880107C4A0868904219
:104DC00034D07A4A1832904230D0784A3032904209
:104DD0002CD0764A4832904228D0744A60329042B1
:104DE00024D0724A7832904220D0704A9032904259
:104DF0001CD06E4AA832904218D06D4A904215D00D
:104E00006B4A1832904211D0694A303290420DD02C
:104E1000674A4832904209D0654A6032904205D0D4
:104E2000634A7832904201D0614A9032406800046F
:104E3000000CA6D0B4F85C208242A2D9A4F85E008F
:104E4000C869B0F5807F2FD0216851E8000F20F4A9
:104E5000807041E80002002AF6D12068083050E84E
:104E6000001F21F0010140E80012002AF5D120685E
:104E7000083050E8001F21F0400140E80012002AED
:104E8000F5D1C4F88C30E566216851E8000F20F0B8
:104E9000100041E80002002AF6D101E040E00BE0FA
:104EA000D4F88000FCF7D8F82667B4F85C00B4F8B2
:104EB0005E10401A81B22FE0B4F85C00B4F85E10C6
:104EC000B4F85E20401A81B2002AB2D00029B0D0D6
:104ED000226852E8000F20F4907042E80007002F8B
:104EE000F6D1344F206800F1080050E8002F02EAA4
:104EF000070240E8002CBCF1000FF3D1C4F88C305D
:104F0000E5666567206850E8002F22F0100240E84F
:104F10000023002BF6D126672046FFF738FE30E746
:104F2000C60209D5560207D54FF4801038622046D4
:104F3000BDE8F041FFF77ABE06060AD501F080060B
:104F400002F40002164304D0A16F00297FF412AFCF
:104F500017E7420611D54A060FD52046026852E8E7
:104F6000001F21F0400142E80014002CF6D1C0F8E7
:104F70008830856700F086F903E7020206D54A000B
:104F800004D52046BDE8F041FFF74FBEC001C6D5AD
:104F90000029C4DA2046BDE8F041FFF7F9BD000062
:104FA0000100001020010004C75F0008100002404B
:104FB00010040240FEFFFFEF10B5040003D0D4F848
:104FC000880010B107E0012010BD002084F88400A3
:104FD000204600F027F82420C4F8880020680168E3
:104FE00021F001010160204601F022F80128EBD0F8
:104FF000A06A10B1204600F02DFF2068416821F41E
:10500000904141602068816821F02A018160206818
:10501000016841F0010101602046BDE8104000F048
:105020007DBF00002DE9F043B5B0044614212EA841
:10503000FBF7D5F9B8216846FBF7D1F95E4902269E
:10504000206807275B4D002488423AD100201E9437
:105050000121CDE900106846FEF7AAF908B1FBF777
:105060007EFF54481030016841F010010160006873
:1050700000F010003390286840F002002860286893
:1050800004214E4D00F0020033904FF400402E906A
:10509000CDE92F64CDE931412EA92846FDF76EF9FF
:1050A00040202E90CDE92F64CDE931472EA9284626
:1050B000FDF764F9012225201146FDF7D5FD2520D5
:1050C00046E03F49DFF8FC80DFF8FC90884244D19D
:1050D00000201D940221CDE900106846FEF768F912
:1050E00008B1FBF73CFFD8F8001041F40031C8F8D4
:1050F0000010D8F8000000F400303390286840F029
:1051000001002860286800F001003390286840F012
:105110000800286028682EA900F0080033900820B5
:105120002E90CDE92F642948CDE93147FDF726F9C6
:1051300020202E90CDE92F64CDE931472EA9484695
:10514000FDF71CF9002201212620FDF78DFD262008
:10515000FDF77CFD35B0BDE8F0831D498842F9D1EB
:1051600000201D940221CDE900106846FEF720F9C9
:1051700008B1FBF7F4FED8F8001041F48021C8F81C
:105180000010D8F8000000F480203390286840F028
:105190000800286028682EA900F0080033904FF41A
:1051A00040702E90CDE92F64CDE931474846FDF798
:1051B000E5F8CFE7E044025800100140000402582F
:1051C00000440040E8440258000C02580000025815
:1051D000004800402DE9F8430446D0F8880098467E
:1051E00016460D46202802D00220BDE8F883A5B15E
:1051F0009EB10021C4F890102120C4F88800183412
:10520000FDF7D8F9814654F8100CA687E6872027C9
:10521000183CB0F5805F02D003E00120E5E720698B
:1052200010B12E46002510E000260EE08021204619
:1052300001F0ECF8C0B9DEB116F8010B2168886204
:10524000B4F85600401EA4F85600B4F856004B4679
:105250004FF00002CDF800800028E7D14FF0400168
:10526000204601F0D3F848B1C4F888700320BCE7A9
:1052700035F8020B2168C0F30800E0E7C4F8887035
:105280000020B2E77047FEE710B5806B00210123D4
:105290000268946824F4404494604186418780F811
:1052A0004D30016D41F008010165FDF789F910BD30
:1052B00010B5C169806B49B90168002301228C686F
:1052C00024F480448C60438780F84D20FDF7B0FBC8
:1052D00010BD10B5806BFDF709FC10BD30B585B071
:1052E00014216846FBF77BF80020094D01214FF49B
:1052F00080740094CDE90110694603902846FDF7BB
:105300003DF8002221462846FDF74EF905B030BD94
:105310000008025830B585B00B4D0C4C0C4B0D4AB3
:105320000D498DE83E0040222023D10004F098F979
:1053300010F0FF0F05D009A005B0BDE8304001F026
:10534000D1B80CA0F8E7000034430208344D02083D
:10535000344C0208344B0208342302084D464343C0
:105360005F496E69745F4552524F522121210D0AE7
:10537000000000004D4643435F496E69745F4F4B28
:105380000D0A00000A480021084B012210B50360F5
:1053900001714171416102628161FBF70DFE0028DC
:1053A00003D0BDE81040FBF7DABD10BD004C025839
:1053B000609B0020154808B5016841F001010160BB
:1053C000016801F001010091016841F002010160F2
:1053D00000680022022100F0020000900B20FDF77F
:1053E00043FC0B20FDF732FC022238201146FDF76A
:1053F0003BFC3820FDF72AFC032202213920FDF76F
:1054000033FCBDE808403920FDF720BCD8440258E1
:105410002DE9F04F87B014216846FAF7E0FF6148A4
:10542000016841F004010160016801F00401059187
:10543000016841F080010160016801F0800105917F
:10544000016841F001010160016801F0010105916D
:10545000016841F002010160016801F0020105915B
:10546000016841F008010160016801F0080105913F
:10547000016841F040010160016801F040010591BF
:10548000016841F010010160006844F20107DFF893
:1054900018B1002200F01000394605905846FDF77B
:1054A00083F84FF48068414800224146FDF77CF8BC
:1054B0003F4800220221FDF777F80024DFF8F4A02E
:1054C0004FF40059694650460294CDE90094FCF728
:1054D00055FF0B2669463220009002255046CDE943
:1054E0000154CDE90346FCF749FF86200090DFF820
:1054F000C8A06946CDE90154CDE903465046FCF702
:105500003DFF00970127CDE9017469465846039491
:10551000FCF734FFCDF800906946CDE90154CDE9A0
:1055200003465846FCF72AFFCDF800806946CDE9CE
:1055300001741E480394FCF721FF8020DFF87C9063
:105540004FF488118DE8130069464846FCF716FFB2
:1055500028026946CDE9000450460294FCF70EFF8C
:105560000A20CDF80080CDE901546946CDE9034019
:105570005046FCF703FF4FF420500090CDE9015452
:10558000CDE9034669464846FCF7F8FE00956946B2
:10559000CDE9017406480394FCF7F0FE07B0BDE8BE
:1055A000F08F0000E044025800040258000C02583A
:1055B0000010025800080258000002580018025853
:1055C00070B50D4D4FF47A530C4800210624AA15EE
:1055D000C0E90212C0E904138161C1610162416244
:1055E0008162C0E90054FCF7F9FF002803D0BDE850
:1055F0007040FBF7B4BC70BD00300140849B0020BC
:1056000070B50D4D4FF47A530C4800210624AA15AD
:10561000C0E90212C0E904138161C1610162416203
:105620008162C0E90054FCF7D9FF002803D0BDE82F
:105630007040FBF794BC70BD00380040D89B002040
:1056400070B50D4D4FF47A530C4800210624AA156D
:10565000C0E90212C0E904138161C16101624162C3
:105660008162C0E90054FCF7B9FF002803D0BDE80F
:105670007040FBF774BC70BD003C00402C9C0020C7
:1056800010B588B017480024154946F66B3241F230
:10569000873300940194029403940494059406942F
:1056A00080E81600C0E903348461FFF735F808B1DB
:1056B000FBF755FC4FF4805000900A486946FFF70D
:1056C000DFF808B1FBF74BFC064804A904940694E4
:1056D000FEF7C6FF002801D0FBF741FC08B010BD63
:1056E00000040040E89D002010B588B01748002451
:1056F0004FF6FF72144900940194029403940494A9
:1057000005940694C0E90014C0E902420461846172
:10571000FFF702F808B1FBF722FC4FF4805000902D
:105720000A486946FFF7ACF808B1FBF718FC0748D0
:1057300004A904940694FEF793FF002801D0FBF718
:105740000EFC08B010BD000000080040349E002090
:105750001848002110B5164C0C224FF41653046063
:10576000C0E90131C160C0E904128161C161016217
:1057700041628162FFF720FC08B1FBF7F0FB0D48A6
:105780000021FFF72CFA08B1FBF7E9FB09480021DB
:10579000FFF7FFF908B1FBF7E2FB0648FFF7D7F97F
:1057A000002803D0BDE81040FBF7D9BB10BD0000B6
:1057B00000100140809F00201848002110B5164CB1
:1057C0000C224FF416530460C0E90131C160C0E9F6
:1057D00004128161C161016241628162FFF7ECFBE9
:1057E00008B1FBF7BCFB0D480021FFF7F8F908B141
:1057F000FBF7B5FB09480021FFF7CBF908B1FBF730
:10580000AEFB0648FFF7A3F9002803D0BDE810401F
:10581000FBF7A5BB10BD00000044004014A0002011
:105820001848002110B5164C0C224FF4E1330460E7
:10583000C0E90131C160C0E904128161C161016246
:1058400041628162FFF7B8FB08B1FBF788FB0D48A6
:105850000021FFF7C4F908B1FBF781FB09480021DB
:10586000FFF797F908B1FBF77AFB0648FFF76FF9E6
:10587000002803D0BDE81040FBF771BB10BD00004D
:1058800000480040A8A0002070470000014802F036
:1058900089BA0000040A002010B50F4C2069A8B195
:1058A000201D02F0A9F988B904F1100007C802F020
:1058B000BBFF012804D0206902F088FF07A108E09F
:1058C0000548083005F0C8FB002804D0074808A1A7
:1058D000006802F0D7FE10BDF809002061695F6E14
:1058E0006574776F726B5F72756E0000302302080B
:1058F00050726F6365737320686173204641494C31
:1059000045440000FEE7FEE7704700002DE9F04740
:10591000454D044689464FF0000A2868C043800779
:105920000AD0414E283E306820F080603060FCF79D
:1059300041FE0746B04608E00120BDE8F08700BF01
:10594000FCF738FEC01B022867D8D8F80000000119
:10595000F6D4206829684FF4FE0721F47C313E021A
:1059600041EA00302860207AA389B4F804C04002DC
:105970002D4D2D495B1E227CACF1010C1035091D0B
:10598000A0F5007080B2521ECCF3080C07EA034366
:1059900040EA0C00184306EA0262104328600868D7
:1059A000626920F0C000104308600A68A06922F014
:1059B000200202430A60281D0A6822F010020A60D1
:1059C00002684FF6F873E4699A4342EAC40202603F
:1059D0000868B9F1000F40F010020A6011D00868A1
:1059E000B9F1010F11D040F400100860D8F80000A0
:1059F000444640F08060C8F80000FCF7DBFD054637
:105A00000DE0086840F40020EFE740F48010ECE778
:105A1000FCF7D0FD401B022801D903208DE7206848
:105A20000001F5D5504688E7284402582DE9F04793
:105A3000454D044689464FF0000A2868C043800758
:105A40000AD0414E283E306820F080503060FCF78C
:105A5000B1FD0746B04608E00120BDE8F08700BF71
:105A6000FCF7A8FDC01B022867D8D8F8000080000A
:105A7000F6D4208829684FF4FE0721F07C713E029D
:105A800041EA00502860207AA389B4F804C040029B
:105A90002D4D2D495B1E227CACF1010C1835091DE2
:105AA000A0F5007080B2521ECCF3080C07EA034345
:105AB00040EA0C00184306EA0262104328600868B6
:105AC000626920F44060104308600A68A06922F40B
:105AD000007202430A60281D0A6822F480720A607C
